{
  "contractName": "DBSwapRouter01",
  "abi": [
    {
      "inputs": [
        {
          "internalType": "address",
          "name": "_factory",
          "type": "address"
        },
        {
          "internalType": "address",
          "name": "_WETH",
          "type": "address"
        }
      ],
      "stateMutability": "nonpayable",
      "type": "constructor"
    },
    {
      "inputs": [],
      "name": "WETH",
      "outputs": [
        {
          "internalType": "address",
          "name": "",
          "type": "address"
        }
      ],
      "stateMutability": "view",
      "type": "function"
    },
    {
      "inputs": [],
      "name": "factory",
      "outputs": [
        {
          "internalType": "address",
          "name": "",
          "type": "address"
        }
      ],
      "stateMutability": "view",
      "type": "function"
    },
    {
      "stateMutability": "payable",
      "type": "receive"
    },
    {
      "inputs": [
        {
          "internalType": "address",
          "name": "tokenA",
          "type": "address"
        },
        {
          "internalType": "address",
          "name": "tokenB",
          "type": "address"
        },
        {
          "internalType": "uint256",
          "name": "amountADesired",
          "type": "uint256"
        },
        {
          "internalType": "uint256",
          "name": "amountBDesired",
          "type": "uint256"
        },
        {
          "internalType": "uint256",
          "name": "amountAMin",
          "type": "uint256"
        },
        {
          "internalType": "uint256",
          "name": "amountBMin",
          "type": "uint256"
        },
        {
          "internalType": "address",
          "name": "to",
          "type": "address"
        },
        {
          "internalType": "uint256",
          "name": "deadline",
          "type": "uint256"
        }
      ],
      "name": "addLiquidity",
      "outputs": [
        {
          "internalType": "uint256",
          "name": "amountA",
          "type": "uint256"
        },
        {
          "internalType": "uint256",
          "name": "amountB",
          "type": "uint256"
        },
        {
          "internalType": "uint256",
          "name": "liquidity",
          "type": "uint256"
        }
      ],
      "stateMutability": "nonpayable",
      "type": "function"
    },
    {
      "inputs": [
        {
          "internalType": "address",
          "name": "token",
          "type": "address"
        },
        {
          "internalType": "uint256",
          "name": "amountTokenDesired",
          "type": "uint256"
        },
        {
          "internalType": "uint256",
          "name": "amountTokenMin",
          "type": "uint256"
        },
        {
          "internalType": "uint256",
          "name": "amountETHMin",
          "type": "uint256"
        },
        {
          "internalType": "address",
          "name": "to",
          "type": "address"
        },
        {
          "internalType": "uint256",
          "name": "deadline",
          "type": "uint256"
        }
      ],
      "name": "addLiquidityETH",
      "outputs": [
        {
          "internalType": "uint256",
          "name": "amountToken",
          "type": "uint256"
        },
        {
          "internalType": "uint256",
          "name": "amountETH",
          "type": "uint256"
        },
        {
          "internalType": "uint256",
          "name": "liquidity",
          "type": "uint256"
        }
      ],
      "stateMutability": "payable",
      "type": "function"
    },
    {
      "inputs": [
        {
          "internalType": "address",
          "name": "tokenA",
          "type": "address"
        },
        {
          "internalType": "address",
          "name": "tokenB",
          "type": "address"
        },
        {
          "internalType": "uint256",
          "name": "liquidity",
          "type": "uint256"
        },
        {
          "internalType": "uint256",
          "name": "amountAMin",
          "type": "uint256"
        },
        {
          "internalType": "uint256",
          "name": "amountBMin",
          "type": "uint256"
        },
        {
          "internalType": "address",
          "name": "to",
          "type": "address"
        },
        {
          "internalType": "uint256",
          "name": "deadline",
          "type": "uint256"
        }
      ],
      "name": "removeLiquidity",
      "outputs": [
        {
          "internalType": "uint256",
          "name": "amountA",
          "type": "uint256"
        },
        {
          "internalType": "uint256",
          "name": "amountB",
          "type": "uint256"
        }
      ],
      "stateMutability": "nonpayable",
      "type": "function"
    },
    {
      "inputs": [
        {
          "internalType": "address",
          "name": "token",
          "type": "address"
        },
        {
          "internalType": "uint256",
          "name": "liquidity",
          "type": "uint256"
        },
        {
          "internalType": "uint256",
          "name": "amountTokenMin",
          "type": "uint256"
        },
        {
          "internalType": "uint256",
          "name": "amountETHMin",
          "type": "uint256"
        },
        {
          "internalType": "address",
          "name": "to",
          "type": "address"
        },
        {
          "internalType": "uint256",
          "name": "deadline",
          "type": "uint256"
        }
      ],
      "name": "removeLiquidityETH",
      "outputs": [
        {
          "internalType": "uint256",
          "name": "amountToken",
          "type": "uint256"
        },
        {
          "internalType": "uint256",
          "name": "amountETH",
          "type": "uint256"
        }
      ],
      "stateMutability": "nonpayable",
      "type": "function"
    },
    {
      "inputs": [
        {
          "internalType": "address",
          "name": "tokenA",
          "type": "address"
        },
        {
          "internalType": "address",
          "name": "tokenB",
          "type": "address"
        },
        {
          "internalType": "uint256",
          "name": "liquidity",
          "type": "uint256"
        },
        {
          "internalType": "uint256",
          "name": "amountAMin",
          "type": "uint256"
        },
        {
          "internalType": "uint256",
          "name": "amountBMin",
          "type": "uint256"
        },
        {
          "internalType": "address",
          "name": "to",
          "type": "address"
        },
        {
          "internalType": "uint256",
          "name": "deadline",
          "type": "uint256"
        },
        {
          "internalType": "bool",
          "name": "approveMax",
          "type": "bool"
        },
        {
          "internalType": "uint8",
          "name": "v",
          "type": "uint8"
        },
        {
          "internalType": "bytes32",
          "name": "r",
          "type": "bytes32"
        },
        {
          "internalType": "bytes32",
          "name": "s",
          "type": "bytes32"
        }
      ],
      "name": "removeLiquidityWithPermit",
      "outputs": [
        {
          "internalType": "uint256",
          "name": "amountA",
          "type": "uint256"
        },
        {
          "internalType": "uint256",
          "name": "amountB",
          "type": "uint256"
        }
      ],
      "stateMutability": "nonpayable",
      "type": "function"
    },
    {
      "inputs": [
        {
          "internalType": "address",
          "name": "token",
          "type": "address"
        },
        {
          "internalType": "uint256",
          "name": "liquidity",
          "type": "uint256"
        },
        {
          "internalType": "uint256",
          "name": "amountTokenMin",
          "type": "uint256"
        },
        {
          "internalType": "uint256",
          "name": "amountETHMin",
          "type": "uint256"
        },
        {
          "internalType": "address",
          "name": "to",
          "type": "address"
        },
        {
          "internalType": "uint256",
          "name": "deadline",
          "type": "uint256"
        },
        {
          "internalType": "bool",
          "name": "approveMax",
          "type": "bool"
        },
        {
          "internalType": "uint8",
          "name": "v",
          "type": "uint8"
        },
        {
          "internalType": "bytes32",
          "name": "r",
          "type": "bytes32"
        },
        {
          "internalType": "bytes32",
          "name": "s",
          "type": "bytes32"
        }
      ],
      "name": "removeLiquidityETHWithPermit",
      "outputs": [
        {
          "internalType": "uint256",
          "name": "amountToken",
          "type": "uint256"
        },
        {
          "internalType": "uint256",
          "name": "amountETH",
          "type": "uint256"
        }
      ],
      "stateMutability": "nonpayable",
      "type": "function"
    },
    {
      "inputs": [
        {
          "internalType": "uint256",
          "name": "amountIn",
          "type": "uint256"
        },
        {
          "internalType": "uint256",
          "name": "amountOutMin",
          "type": "uint256"
        },
        {
          "internalType": "address[]",
          "name": "path",
          "type": "address[]"
        },
        {
          "internalType": "address",
          "name": "to",
          "type": "address"
        },
        {
          "internalType": "uint256",
          "name": "deadline",
          "type": "uint256"
        }
      ],
      "name": "swapExactTokensForTokens",
      "outputs": [
        {
          "internalType": "uint256[]",
          "name": "amounts",
          "type": "uint256[]"
        }
      ],
      "stateMutability": "nonpayable",
      "type": "function"
    },
    {
      "inputs": [
        {
          "internalType": "uint256",
          "name": "amountOut",
          "type": "uint256"
        },
        {
          "internalType": "uint256",
          "name": "amountInMax",
          "type": "uint256"
        },
        {
          "internalType": "address[]",
          "name": "path",
          "type": "address[]"
        },
        {
          "internalType": "address",
          "name": "to",
          "type": "address"
        },
        {
          "internalType": "uint256",
          "name": "deadline",
          "type": "uint256"
        }
      ],
      "name": "swapTokensForExactTokens",
      "outputs": [
        {
          "internalType": "uint256[]",
          "name": "amounts",
          "type": "uint256[]"
        }
      ],
      "stateMutability": "nonpayable",
      "type": "function"
    },
    {
      "inputs": [
        {
          "internalType": "uint256",
          "name": "amountOutMin",
          "type": "uint256"
        },
        {
          "internalType": "address[]",
          "name": "path",
          "type": "address[]"
        },
        {
          "internalType": "address",
          "name": "to",
          "type": "address"
        },
        {
          "internalType": "uint256",
          "name": "deadline",
          "type": "uint256"
        }
      ],
      "name": "swapExactETHForTokens",
      "outputs": [
        {
          "internalType": "uint256[]",
          "name": "amounts",
          "type": "uint256[]"
        }
      ],
      "stateMutability": "payable",
      "type": "function"
    },
    {
      "inputs": [
        {
          "internalType": "uint256",
          "name": "amountOut",
          "type": "uint256"
        },
        {
          "internalType": "uint256",
          "name": "amountInMax",
          "type": "uint256"
        },
        {
          "internalType": "address[]",
          "name": "path",
          "type": "address[]"
        },
        {
          "internalType": "address",
          "name": "to",
          "type": "address"
        },
        {
          "internalType": "uint256",
          "name": "deadline",
          "type": "uint256"
        }
      ],
      "name": "swapTokensForExactETH",
      "outputs": [
        {
          "internalType": "uint256[]",
          "name": "amounts",
          "type": "uint256[]"
        }
      ],
      "stateMutability": "nonpayable",
      "type": "function"
    },
    {
      "inputs": [
        {
          "internalType": "uint256",
          "name": "amountIn",
          "type": "uint256"
        },
        {
          "internalType": "uint256",
          "name": "amountOutMin",
          "type": "uint256"
        },
        {
          "internalType": "address[]",
          "name": "path",
          "type": "address[]"
        },
        {
          "internalType": "address",
          "name": "to",
          "type": "address"
        },
        {
          "internalType": "uint256",
          "name": "deadline",
          "type": "uint256"
        }
      ],
      "name": "swapExactTokensForETH",
      "outputs": [
        {
          "internalType": "uint256[]",
          "name": "amounts",
          "type": "uint256[]"
        }
      ],
      "stateMutability": "nonpayable",
      "type": "function"
    },
    {
      "inputs": [
        {
          "internalType": "uint256",
          "name": "amountOut",
          "type": "uint256"
        },
        {
          "internalType": "address[]",
          "name": "path",
          "type": "address[]"
        },
        {
          "internalType": "address",
          "name": "to",
          "type": "address"
        },
        {
          "internalType": "uint256",
          "name": "deadline",
          "type": "uint256"
        }
      ],
      "name": "swapETHForExactTokens",
      "outputs": [
        {
          "internalType": "uint256[]",
          "name": "amounts",
          "type": "uint256[]"
        }
      ],
      "stateMutability": "payable",
      "type": "function"
    },
    {
      "inputs": [
        {
          "internalType": "uint256",
          "name": "amountA",
          "type": "uint256"
        },
        {
          "internalType": "uint256",
          "name": "reserveA",
          "type": "uint256"
        },
        {
          "internalType": "uint256",
          "name": "reserveB",
          "type": "uint256"
        }
      ],
      "name": "quote",
      "outputs": [
        {
          "internalType": "uint256",
          "name": "amountB",
          "type": "uint256"
        }
      ],
      "stateMutability": "pure",
      "type": "function"
    },
    {
      "inputs": [
        {
          "internalType": "uint256",
          "name": "amountIn",
          "type": "uint256"
        },
        {
          "internalType": "uint256",
          "name": "reserveIn",
          "type": "uint256"
        },
        {
          "internalType": "uint256",
          "name": "reserveOut",
          "type": "uint256"
        }
      ],
      "name": "getAmountOut",
      "outputs": [
        {
          "internalType": "uint256",
          "name": "amountOut",
          "type": "uint256"
        }
      ],
      "stateMutability": "pure",
      "type": "function"
    },
    {
      "inputs": [
        {
          "internalType": "uint256",
          "name": "amountOut",
          "type": "uint256"
        },
        {
          "internalType": "uint256",
          "name": "reserveIn",
          "type": "uint256"
        },
        {
          "internalType": "uint256",
          "name": "reserveOut",
          "type": "uint256"
        }
      ],
      "name": "getAmountIn",
      "outputs": [
        {
          "internalType": "uint256",
          "name": "amountIn",
          "type": "uint256"
        }
      ],
      "stateMutability": "pure",
      "type": "function"
    },
    {
      "inputs": [
        {
          "internalType": "uint256",
          "name": "amountIn",
          "type": "uint256"
        },
        {
          "internalType": "address[]",
          "name": "path",
          "type": "address[]"
        }
      ],
      "name": "getAmountsOut",
      "outputs": [
        {
          "internalType": "uint256[]",
          "name": "amounts",
          "type": "uint256[]"
        }
      ],
      "stateMutability": "view",
      "type": "function"
    },
    {
      "inputs": [
        {
          "internalType": "uint256",
          "name": "amountOut",
          "type": "uint256"
        },
        {
          "internalType": "address[]",
          "name": "path",
          "type": "address[]"
        }
      ],
      "name": "getAmountsIn",
      "outputs": [
        {
          "internalType": "uint256[]",
          "name": "amounts",
          "type": "uint256[]"
        }
      ],
      "stateMutability": "view",
      "type": "function"
    }
  ],
  "bytecode": "0x60c06040523480156200001157600080fd5b506040516200533338038062005333833981810160405281019062000037919062000111565b8173ffffffffffffffffffffffffffffffffffffffff1660808173ffffffffffffffffffffffffffffffffffffffff16815250508073ffffffffffffffffffffffffffffffffffffffff1660a08173ffffffffffffffffffffffffffffffffffffffff1681525050505062000158565b600080fd5b600073ffffffffffffffffffffffffffffffffffffffff82169050919050565b6000620000d982620000ac565b9050919050565b620000eb81620000cc565b8114620000f757600080fd5b50565b6000815190506200010b81620000e0565b92915050565b600080604083850312156200012b576200012a620000a7565b5b60006200013b85828601620000fa565b92505060206200014e85828601620000fa565b9150509250929050565b60805160a05161508f620002a46000396000818161011f015281816106110152818161064f0152818161074c015281816109fd01528181610ea70152818161114c015281816112800152818161140e015281816114aa0152818161188801528181611ba901528181611e2101528181611e7a01528181611eae01528181611f2f015281816120ca0152818161224c01526122e80152600081816108130152818161091801528181610af001528181610b2801528181610c6c01528181610d7101528181610f6e0152818161106701528181611339015281816114e90152818161169f015281816117980152818161190e01528181611b2601528181611b4f01528181611b8701528181611d0401528181611e58015281816121830152818161232701528181612c2801528181612c7c01528181613118015281816131d00152613276015261508f6000f3fe6080604052600436106101185760003560e01c80638803dbee116100a0578063d06ca61f11610064578063d06ca61f146104a8578063ded9382a146104e5578063e8e3370014610523578063f305d71914610562578063fb3bdb41146105945761017b565b80638803dbee1461039a578063ad5c4648146103d7578063ad615dec14610402578063baa2abde1461043f578063c45a01551461047d5761017b565b80632195995c116100e75780632195995c1461027557806338ed1739146102b35780634a25d94a146102f05780637ff36ab51461032d57806385f8c2591461035d5761017b565b806302751cec14610180578063054d50d4146101be57806318cbafe5146101fb5780631f00ca74146102385761017b565b3661017b577f000000000000000000000000000000000000000000000000000000000000000073ffffffffffffffffffffffffffffffffffffffff163373ffffffffffffffffffffffffffffffffffffffff16146101795761017861359d565b5b005b600080fd5b34801561018c57600080fd5b506101a760048036038101906101a29190613674565b6105c4565b6040516101b5929190613710565b60405180910390f35b3480156101ca57600080fd5b506101e560048036038101906101e09190613739565b6106ee565b6040516101f2919061378c565b60405180910390f35b34801561020757600080fd5b50610222600480360381019061021d919061380c565b610704565b60405161022f9190613964565b60405180910390f35b34801561024457600080fd5b5061025f600480360381019061025a9190613ad5565b610ae9565b60405161026c9190613964565b60405180910390f35b34801561028157600080fd5b5061029c60048036038101906102979190613bd8565b610b1e565b6040516102aa929190613710565b60405180910390f35b3480156102bf57600080fd5b506102da60048036038101906102d5919061380c565b610c21565b6040516102e79190613964565b60405180910390f35b3480156102fc57600080fd5b506103176004803603810190610312919061380c565b610e5f565b6040516103249190613964565b60405180910390f35b61034760048036038101906103429190613ccc565b611238565b6040516103549190613964565b60405180910390f35b34801561036957600080fd5b50610384600480360381019061037f9190613739565b61163e565b604051610391919061378c565b60405180910390f35b3480156103a657600080fd5b506103c160048036038101906103bc919061380c565b611654565b6040516103ce9190613964565b60405180910390f35b3480156103e357600080fd5b506103ec611886565b6040516103f99190613d63565b60405180910390f35b34801561040e57600080fd5b5061042960048036038101906104249190613739565b6118aa565b604051610436919061378c565b60405180910390f35b34801561044b57600080fd5b5061046660048036038101906104619190613d7e565b6118c0565b604051610474929190613710565b60405180910390f35b34801561048957600080fd5b50610492611b24565b60405161049f9190613d63565b60405180910390f35b3480156104b457600080fd5b506104cf60048036038101906104ca9190613ad5565b611b48565b6040516104dc9190613964565b60405180910390f35b3480156104f157600080fd5b5061050c60048036038101906105079190613e20565b611b7d565b60405161051a929190613710565b60405180910390f35b34801561052f57600080fd5b5061054a60048036038101906105459190613eff565b611c9e565b60405161055993929190613fb5565b60405180910390f35b61057c60048036038101906105779190613674565b611dd2565b60405161058b93929190613fb5565b60405180910390f35b6105ae60048036038101906105a99190613ccc565b612082565b6040516105bb9190613964565b60405180910390f35b600080824281101561060b576040517f08c379a000000000000000000000000000000000000000000000000000000000815260040161060290614049565b60405180910390fd5b61063a897f00000000000000000000000000000000000000000000000000000000000000008a8a8a308a6118c0565b809350819450505061064d8986856124d0565b7f000000000000000000000000000000000000000000000000000000000000000073ffffffffffffffffffffffffffffffffffffffff16632e1a7d4d836040518263ffffffff1660e01b81526004016106a6919061378c565b600060405180830381600087803b1580156106c057600080fd5b505af11580156106d4573d6000803e3d6000fd5b505050506106e28583612606565b50965096945050505050565b60006106fb848484612706565b90509392505050565b6060814281101561074a576040517f08c379a000000000000000000000000000000000000000000000000000000000815260040161074190614049565b60405180910390fd5b7f000000000000000000000000000000000000000000000000000000000000000073ffffffffffffffffffffffffffffffffffffffff1686866001898990506107939190614098565b8181106107a3576107a26140cc565b5b90506020020160208101906107b891906140fb565b73ffffffffffffffffffffffffffffffffffffffff161461080e576040517f08c379a000000000000000000000000000000000000000000000000000000000815260040161080590614174565b60405180910390fd5b61087a7f000000000000000000000000000000000000000000000000000000000000000089888880806020026020016040519081016040528093929190818152602001838360200280828437600081840152601f19601f820116905080830192505050505050506127f0565b915086826001845161088c9190614098565b8151811061089d5761089c6140cc565b5b602002602001015110156108e6576040517f08c379a00000000000000000000000000000000000000000000000000000000081526004016108dd90614206565b60405180910390fd5b6109af868660008181106108fd576108fc6140cc565b5b905060200201602081019061091291906140fb565b3361098e7f00000000000000000000000000000000000000000000000000000000000000008a8a600081811061094b5761094a6140cc565b5b905060200201602081019061096091906140fb565b8b8b6001818110610974576109736140cc565b5b905060200201602081019061098991906140fb565b61297b565b856000815181106109a2576109a16140cc565b5b60200260200101516129ed565b6109fb82878780806020026020016040519081016040528093929190818152602001838360200280828437600081840152601f19601f8201169050808301925050505050505030612b26565b7f000000000000000000000000000000000000000000000000000000000000000073ffffffffffffffffffffffffffffffffffffffff16632e1a7d4d8360018551610a469190614098565b81518110610a5757610a566140cc565b5b60200260200101516040518263ffffffff1660e01b8152600401610a7b919061378c565b600060405180830381600087803b158015610a9557600080fd5b505af1158015610aa9573d6000803e3d6000fd5b50505050610ade848360018551610ac09190614098565b81518110610ad157610ad06140cc565b5b6020026020010151612606565b509695505050505050565b6060610b167f00000000000000000000000000000000000000000000000000000000000000008484612d7f565b905092915050565b6000806000610b4e7f00000000000000000000000000000000000000000000000000000000000000008f8f61297b565b9050600087610b5d578c610b7f565b7fffffffffffffffffffffffffffffffffffffffffffffffffffffffffffffffff5b90508173ffffffffffffffffffffffffffffffffffffffff1663d505accf3330848d8c8c8c6040518863ffffffff1660e01b8152600401610bc69796959493929190614244565b600060405180830381600087803b158015610be057600080fd5b505af1158015610bf4573d6000803e3d6000fd5b50505050610c078f8f8f8f8f8f8f6118c0565b809450819550505050509b509b9950505050505050505050565b60608142811015610c67576040517f08c379a0000000000000000000000000000000000000000000000000000000008152600401610c5e90614049565b60405180910390fd5b610cd37f000000000000000000000000000000000000000000000000000000000000000089888880806020026020016040519081016040528093929190818152602001838360200280828437600081840152601f19601f820116905080830192505050505050506127f0565b9150868260018451610ce59190614098565b81518110610cf657610cf56140cc565b5b60200260200101511015610d3f576040517f08c379a0000000000000000000000000000000000000000000000000000000008152600401610d3690614206565b60405180910390fd5b610e0886866000818110610d5657610d556140cc565b5b9050602002016020810190610d6b91906140fb565b33610de77f00000000000000000000000000000000000000000000000000000000000000008a8a6000818110610da457610da36140cc565b5b9050602002016020810190610db991906140fb565b8b8b6001818110610dcd57610dcc6140cc565b5b9050602002016020810190610de291906140fb565b61297b565b85600081518110610dfb57610dfa6140cc565b5b60200260200101516129ed565b610e5482878780806020026020016040519081016040528093929190818152602001838360200280828437600081840152601f19601f8201169050808301925050505050505086612b26565b509695505050505050565b60608142811015610ea5576040517f08c379a0000000000000000000000000000000000000000000000000000000008152600401610e9c90614049565b60405180910390fd5b7f000000000000000000000000000000000000000000000000000000000000000073ffffffffffffffffffffffffffffffffffffffff168686600189899050610eee9190614098565b818110610efe57610efd6140cc565b5b9050602002016020810190610f1391906140fb565b73ffffffffffffffffffffffffffffffffffffffff1614610f69576040517f08c379a0000000000000000000000000000000000000000000000000000000008152600401610f6090614174565b60405180910390fd5b610fd57f000000000000000000000000000000000000000000000000000000000000000089888880806020026020016040519081016040528093929190818152602001838360200280828437600081840152601f19601f82011690508083019250505050505050612d7f565b91508682600081518110610fec57610feb6140cc565b5b60200260200101511115611035576040517f08c379a000000000000000000000000000000000000000000000000000000000815260040161102c90614325565b60405180910390fd5b6110fe8686600081811061104c5761104b6140cc565b5b905060200201602081019061106191906140fb565b336110dd7f00000000000000000000000000000000000000000000000000000000000000008a8a600081811061109a576110996140cc565b5b90506020020160208101906110af91906140fb565b8b8b60018181106110c3576110c26140cc565b5b90506020020160208101906110d891906140fb565b61297b565b856000815181106110f1576110f06140cc565b5b60200260200101516129ed565b61114a82878780806020026020016040519081016040528093929190818152602001838360200280828437600081840152601f19601f8201169050808301925050505050505030612b26565b7f000000000000000000000000000000000000000000000000000000000000000073ffffffffffffffffffffffffffffffffffffffff16632e1a7d4d83600185516111959190614098565b815181106111a6576111a56140cc565b5b60200260200101516040518263ffffffff1660e01b81526004016111ca919061378c565b600060405180830381600087803b1580156111e457600080fd5b505af11580156111f8573d6000803e3d6000fd5b5050505061122d84836001855161120f9190614098565b815181106112205761121f6140cc565b5b6020026020010151612606565b509695505050505050565b6060814281101561127e576040517f08c379a000000000000000000000000000000000000000000000000000000000815260040161127590614049565b60405180910390fd5b7f000000000000000000000000000000000000000000000000000000000000000073ffffffffffffffffffffffffffffffffffffffff16868660008181106112c9576112c86140cc565b5b90506020020160208101906112de91906140fb565b73ffffffffffffffffffffffffffffffffffffffff1614611334576040517f08c379a000000000000000000000000000000000000000000000000000000000815260040161132b90614174565b60405180910390fd5b6113a07f000000000000000000000000000000000000000000000000000000000000000034888880806020026020016040519081016040528093929190818152602001838360200280828437600081840152601f19601f820116905080830192505050505050506127f0565b91508682600184516113b29190614098565b815181106113c3576113c26140cc565b5b6020026020010151101561140c576040517f08c379a000000000000000000000000000000000000000000000000000000000815260040161140390614206565b60405180910390fd5b7f000000000000000000000000000000000000000000000000000000000000000073ffffffffffffffffffffffffffffffffffffffff1663d0e30db08360008151811061145c5761145b6140cc565b5b60200260200101516040518263ffffffff1660e01b81526004016000604051808303818588803b15801561148f57600080fd5b505af11580156114a3573d6000803e3d6000fd5b50505050507f000000000000000000000000000000000000000000000000000000000000000073ffffffffffffffffffffffffffffffffffffffff1663a9059cbb61155f7f00000000000000000000000000000000000000000000000000000000000000008989600081811061151c5761151b6140cc565b5b905060200201602081019061153191906140fb565b8a8a6001818110611545576115446140cc565b5b905060200201602081019061155a91906140fb565b61297b565b84600081518110611573576115726140cc565b5b60200260200101516040518363ffffffff1660e01b8152600401611598929190614345565b6020604051808303816000875af11580156115b7573d6000803e3d6000fd5b505050506040513d601f19601f820116820180604052508101906115db9190614383565b6115e8576115e761359d565b5b61163482878780806020026020016040519081016040528093929190818152602001838360200280828437600081840152601f19601f8201169050808301925050505050505086612b26565b5095945050505050565b600061164b848484612706565b90509392505050565b6060814281101561169a576040517f08c379a000000000000000000000000000000000000000000000000000000000815260040161169190614049565b60405180910390fd5b6117067f000000000000000000000000000000000000000000000000000000000000000089888880806020026020016040519081016040528093929190818152602001838360200280828437600081840152601f19601f82011690508083019250505050505050612d7f565b9150868260008151811061171d5761171c6140cc565b5b60200260200101511115611766576040517f08c379a000000000000000000000000000000000000000000000000000000000815260040161175d90614325565b60405180910390fd5b61182f8686600081811061177d5761177c6140cc565b5b905060200201602081019061179291906140fb565b3361180e7f00000000000000000000000000000000000000000000000000000000000000008a8a60008181106117cb576117ca6140cc565b5b90506020020160208101906117e091906140fb565b8b8b60018181106117f4576117f36140cc565b5b905060200201602081019061180991906140fb565b61297b565b85600081518110611822576118216140cc565b5b60200260200101516129ed565b61187b82878780806020026020016040519081016040528093929190818152602001838360200280828437600081840152601f19601f8201169050808301925050505050505086612b26565b509695505050505050565b7f000000000000000000000000000000000000000000000000000000000000000081565b60006118b7848484612f1a565b90509392505050565b6000808242811015611907576040517f08c379a00000000000000000000000000000000000000000000000000000000081526004016118fe90614049565b60405180910390fd5b60006119347f00000000000000000000000000000000000000000000000000000000000000008c8c61297b565b90508073ffffffffffffffffffffffffffffffffffffffff166323b872dd33838c6040518463ffffffff1660e01b8152600401611973939291906143b0565b6020604051808303816000875af1158015611992573d6000803e3d6000fd5b505050506040513d601f19601f820116820180604052508101906119b69190614383565b506000808273ffffffffffffffffffffffffffffffffffffffff166389afcb44896040518263ffffffff1660e01b81526004016119f39190613d63565b60408051808303816000875af1158015611a11573d6000803e3d6000fd5b505050506040513d601f19601f82011682018060405250810190611a3591906143fc565b915091506000611a458e8e612fcd565b5090508073ffffffffffffffffffffffffffffffffffffffff168e73ffffffffffffffffffffffffffffffffffffffff1614611a82578183611a85565b82825b80975081985050508a871015611ad0576040517f08c379a0000000000000000000000000000000000000000000000000000000008152600401611ac7906144ae565b60405180910390fd5b89861015611b13576040517f08c379a0000000000000000000000000000000000000000000000000000000008152600401611b0a90614540565b60405180910390fd5b505050505097509795505050505050565b7f000000000000000000000000000000000000000000000000000000000000000081565b6060611b757f000000000000000000000000000000000000000000000000000000000000000084846127f0565b905092915050565b6000806000611bcd7f00000000000000000000000000000000000000000000000000000000000000008e7f000000000000000000000000000000000000000000000000000000000000000061297b565b9050600087611bdc578c611bfe565b7fffffffffffffffffffffffffffffffffffffffffffffffffffffffffffffffff5b90508173ffffffffffffffffffffffffffffffffffffffff1663d505accf3330848d8c8c8c6040518863ffffffff1660e01b8152600401611c459796959493929190614244565b600060405180830381600087803b158015611c5f57600080fd5b505af1158015611c73573d6000803e3d6000fd5b50505050611c858e8e8e8e8e8e6105c4565b809450819550505050509a509a98505050505050505050565b60008060008342811015611ce7576040517f08c379a0000000000000000000000000000000000000000000000000000000008152600401611cde90614049565b60405180910390fd5b611cf58c8c8c8c8c8c6130fb565b80945081955050506000611d2a7f00000000000000000000000000000000000000000000000000000000000000008e8e61297b565b9050611d388d3383886129ed565b611d448c3383876129ed565b8073ffffffffffffffffffffffffffffffffffffffff16636a627842886040518263ffffffff1660e01b8152600401611d7d9190613d63565b6020604051808303816000875af1158015611d9c573d6000803e3d6000fd5b505050506040513d601f19601f82011682018060405250810190611dc09190614560565b92505050985098509895505050505050565b60008060008342811015611e1b576040517f08c379a0000000000000000000000000000000000000000000000000000000008152600401611e1290614049565b60405180910390fd5b611e498a7f00000000000000000000000000000000000000000000000000000000000000008b348c8c6130fb565b80945081955050506000611e9e7f00000000000000000000000000000000000000000000000000000000000000008c7f000000000000000000000000000000000000000000000000000000000000000061297b565b9050611eac8b3383886129ed565b7f000000000000000000000000000000000000000000000000000000000000000073ffffffffffffffffffffffffffffffffffffffff1663d0e30db0856040518263ffffffff1660e01b81526004016000604051808303818588803b158015611f1457600080fd5b505af1158015611f28573d6000803e3d6000fd5b50505050507f000000000000000000000000000000000000000000000000000000000000000073ffffffffffffffffffffffffffffffffffffffff1663a9059cbb82866040518363ffffffff1660e01b8152600401611f88929190614345565b6020604051808303816000875af1158015611fa7573d6000803e3d6000fd5b505050506040513d601f19601f82011682018060405250810190611fcb9190614383565b611fd857611fd761359d565b5b8073ffffffffffffffffffffffffffffffffffffffff16636a627842886040518263ffffffff1660e01b81526004016120119190613d63565b6020604051808303816000875af1158015612030573d6000803e3d6000fd5b505050506040513d601f19601f820116820180604052508101906120549190614560565b9250833411156120745761207333853461206e9190614098565b612606565b5b505096509650969350505050565b606081428110156120c8576040517f08c379a00000000000000000000000000000000000000000000000000000000081526004016120bf90614049565b60405180910390fd5b7f000000000000000000000000000000000000000000000000000000000000000073ffffffffffffffffffffffffffffffffffffffff1686866000818110612113576121126140cc565b5b905060200201602081019061212891906140fb565b73ffffffffffffffffffffffffffffffffffffffff161461217e576040517f08c379a000000000000000000000000000000000000000000000000000000000815260040161217590614174565b60405180910390fd5b6121ea7f000000000000000000000000000000000000000000000000000000000000000088888880806020026020016040519081016040528093929190818152602001838360200280828437600081840152601f19601f82011690508083019250505050505050612d7f565b91503482600081518110612201576122006140cc565b5b6020026020010151111561224a576040517f08c379a000000000000000000000000000000000000000000000000000000000815260040161224190614325565b60405180910390fd5b7f000000000000000000000000000000000000000000000000000000000000000073ffffffffffffffffffffffffffffffffffffffff1663d0e30db08360008151811061229a576122996140cc565b5b60200260200101516040518263ffffffff1660e01b81526004016000604051808303818588803b1580156122cd57600080fd5b505af11580156122e1573d6000803e3d6000fd5b50505050507f000000000000000000000000000000000000000000000000000000000000000073ffffffffffffffffffffffffffffffffffffffff1663a9059cbb61239d7f00000000000000000000000000000000000000000000000000000000000000008989600081811061235a576123596140cc565b5b905060200201602081019061236f91906140fb565b8a8a6001818110612383576123826140cc565b5b905060200201602081019061239891906140fb565b61297b565b846000815181106123b1576123b06140cc565b5b60200260200101516040518363ffffffff1660e01b81526004016123d6929190614345565b6020604051808303816000875af11580156123f5573d6000803e3d6000fd5b505050506040513d601f19601f820116820180604052508101906124199190614383565b6124265761242561359d565b5b61247282878780806020026020016040519081016040528093929190818152602001838360200280828437600081840152601f19601f8201169050808301925050505050505086612b26565b81600081518110612486576124856140cc565b5b60200260200101513411156124c6576124c533836000815181106124ad576124ac6140cc565b5b6020026020010151346124c09190614098565b612606565b5b5095945050505050565b6000808473ffffffffffffffffffffffffffffffffffffffff1663a9059cbb8585604051602401612502929190614345565b6040516020818303038152906040529060e01b6020820180517bffffffffffffffffffffffffffffffffffffffffffffffffffffffff83818316178352505050506040516125509190614607565b6000604051808303816000865af19150503d806000811461258d576040519150601f19603f3d011682016040523d82523d6000602084013e612592565b606091505b50915091508180156125c057506000815114806125bf5750808060200190518101906125be9190614383565b5b5b6125ff576040517f08c379a00000000000000000000000000000000000000000000000000000000081526004016125f690614690565b60405180910390fd5b5050505050565b60008273ffffffffffffffffffffffffffffffffffffffff1682600067ffffffffffffffff81111561263b5761263a613997565b5b6040519080825280601f01601f19166020018201604052801561266d5781602001600182028036833780820191505090505b5060405161267b9190614607565b60006040518083038185875af1925050503d80600081146126b8576040519150601f19603f3d011682016040523d82523d6000602084013e6126bd565b606091505b5050905080612701576040517f08c379a00000000000000000000000000000000000000000000000000000000081526004016126f890614722565b60405180910390fd5b505050565b600080841161274a576040517f08c379a0000000000000000000000000000000000000000000000000000000008152600401612741906147b4565b60405180910390fd5b60008311801561275a5750600082115b612799576040517f08c379a000000000000000000000000000000000000000000000000000000000815260040161279090614846565b60405180910390fd5b60006103e5856127a99190614866565b9050600083826127b99190614866565b90506000826103e8876127cc9190614866565b6127d691906148c0565b905080826127e49190614945565b93505050509392505050565b6060600282511015612837576040517f08c379a000000000000000000000000000000000000000000000000000000000815260040161282e906149c2565b60405180910390fd5b815167ffffffffffffffff81111561285257612851613997565b5b6040519080825280602002602001820160405280156128805781602001602082028036833780820191505090505b5090508281600081518110612898576128976140cc565b5b60200260200101818152505060005b600183516128b59190614098565b8110156129735760008061290a878685815181106128d6576128d56140cc565b5b6020026020010151876001876128ec91906148c0565b815181106128fd576128fc6140cc565b5b60200260200101516133aa565b91509150612933848481518110612924576129236140cc565b5b60200260200101518383612706565b8460018561294191906148c0565b81518110612952576129516140cc565b5b6020026020010181815250505050808061296b906149e2565b9150506128a7565b509392505050565b600080600061298a8585612fcd565b915091508582826040516020016129a2929190614a73565b604051602081830303815290604052805190602001206040516020016129c9929190614b63565b6040516020818303038152906040528051906020012060001c925050509392505050565b6000808573ffffffffffffffffffffffffffffffffffffffff166323b872dd868686604051602401612a21939291906143b0565b6040516020818303038152906040529060e01b6020820180517bffffffffffffffffffffffffffffffffffffffffffffffffffffffff8381831617835250505050604051612a6f9190614607565b6000604051808303816000865af19150503d8060008114612aac576040519150601f19603f3d011682016040523d82523d6000602084013e612ab1565b606091505b5091509150818015612adf5750600081511480612ade575080806020019051810190612add9190614383565b5b5b612b1e576040517f08c379a0000000000000000000000000000000000000000000000000000000008152600401612b1590614c17565b60405180910390fd5b505050505050565b60005b60018351612b379190614098565b811015612d7957600080848381518110612b5457612b536140cc565b5b602002602001015185600185612b6a91906148c0565b81518110612b7b57612b7a6140cc565b5b6020026020010151915091506000612b938383612fcd565b509050600087600186612ba691906148c0565b81518110612bb757612bb66140cc565b5b602002602001015190506000808373ffffffffffffffffffffffffffffffffffffffff168673ffffffffffffffffffffffffffffffffffffffff1614612bff57826000612c03565b6000835b91509150600060028a51612c179190614098565b8810612c235788612c75565b612c747f0000000000000000000000000000000000000000000000000000000000000000878c60028c612c5691906148c0565b81518110612c6757612c666140cc565b5b602002602001015161297b565b5b9050612ca27f0000000000000000000000000000000000000000000000000000000000000000888861297b565b73ffffffffffffffffffffffffffffffffffffffff1663022c0d9f848484600067ffffffffffffffff811115612cdb57612cda613997565b5b6040519080825280601f01601f191660200182016040528015612d0d5781602001600182028036833780820191505090505b506040518563ffffffff1660e01b8152600401612d2d9493929190614c81565b600060405180830381600087803b158015612d4757600080fd5b505af1158015612d5b573d6000803e3d6000fd5b50505050505050505050508080612d71906149e2565b915050612b29565b50505050565b6060600282511015612dc6576040517f08c379a0000000000000000000000000000000000000000000000000000000008152600401612dbd906149c2565b60405180910390fd5b815167ffffffffffffffff811115612de157612de0613997565b5b604051908082528060200260200182016040528015612e0f5781602001602082028036833780820191505090505b509050828160018351612e229190614098565b81518110612e3357612e326140cc565b5b602002602001018181525050600060018351612e4f9190614098565b90505b6000811115612f1257600080612ea98786600186612e709190614098565b81518110612e8157612e806140cc565b5b6020026020010151878681518110612e9c57612e9b6140cc565b5b60200260200101516133aa565b91509150612ed2848481518110612ec357612ec26140cc565b5b602002602001015183836134ad565b84600185612ee09190614098565b81518110612ef157612ef06140cc565b5b60200260200101818152505050508080612f0a90614ccd565b915050612e52565b509392505050565b6000808411612f5e576040517f08c379a0000000000000000000000000000000000000000000000000000000008152600401612f5590614d69565b60405180910390fd5b600083118015612f6e5750600082115b612fad576040517f08c379a0000000000000000000000000000000000000000000000000000000008152600401612fa490614846565b60405180910390fd5b828285612fba9190614866565b612fc49190614945565b90509392505050565b6000808273ffffffffffffffffffffffffffffffffffffffff168473ffffffffffffffffffffffffffffffffffffffff16141561303f576040517f08c379a000000000000000000000000000000000000000000000000000000000815260040161303690614dfb565b60405180910390fd5b8273ffffffffffffffffffffffffffffffffffffffff168473ffffffffffffffffffffffffffffffffffffffff161061307957828461307c565b83835b8092508193505050600073ffffffffffffffffffffffffffffffffffffffff168273ffffffffffffffffffffffffffffffffffffffff1614156130f4576040517f08c379a00000000000000000000000000000000000000000000000000000000081526004016130eb90614e67565b60405180910390fd5b9250929050565b600080600073ffffffffffffffffffffffffffffffffffffffff167f000000000000000000000000000000000000000000000000000000000000000073ffffffffffffffffffffffffffffffffffffffff1663e6a439058a8a6040518363ffffffff1660e01b8152600401613171929190614e87565b602060405180830381865afa15801561318e573d6000803e3d6000fd5b505050506040513d601f19601f820116820180604052508101906131b29190614ec5565b73ffffffffffffffffffffffffffffffffffffffff16141561326e577f000000000000000000000000000000000000000000000000000000000000000073ffffffffffffffffffffffffffffffffffffffff1663c9c6539689896040518363ffffffff1660e01b8152600401613229929190614e87565b6020604051808303816000875af1158015613248573d6000803e3d6000fd5b505050506040513d601f19601f8201168201806040525081019061326c9190614ec5565b505b60008061329c7f00000000000000000000000000000000000000000000000000000000000000008b8b6133aa565b915091506000821480156132b05750600081145b156132c4578787809450819550505061339d565b60006132d1898484612f1a565b905087811161332c578581101561331d576040517f08c379a000000000000000000000000000000000000000000000000000000000815260040161331490614540565b60405180910390fd5b8881809550819650505061339b565b6000613339898486612f1a565b90508981111561334c5761334b61359d565b5b8781101561338f576040517f08c379a0000000000000000000000000000000000000000000000000000000008152600401613386906144ae565b60405180910390fd5b80898096508197505050505b505b5050965096945050505050565b60008060006133b98585612fcd565b5090506000806133ca88888861297b565b73ffffffffffffffffffffffffffffffffffffffff16630902f1ac6040518163ffffffff1660e01b8152600401606060405180830381865afa158015613414573d6000803e3d6000fd5b505050506040513d601f19601f820116820180604052508101906134389190614f74565b506dffffffffffffffffffffffffffff1691506dffffffffffffffffffffffffffff1691508273ffffffffffffffffffffffffffffffffffffffff168773ffffffffffffffffffffffffffffffffffffffff161461349757808261349a565b81815b8095508196505050505050935093915050565b60008084116134f1576040517f08c379a00000000000000000000000000000000000000000000000000000000081526004016134e890615039565b60405180910390fd5b6000831180156135015750600082115b613540576040517f08c379a000000000000000000000000000000000000000000000000000000000815260040161353790614846565b60405180910390fd5b60006103e885856135519190614866565b61355b9190614866565b905060006103e5868561356e9190614098565b6135789190614866565b9050600181836135889190614945565b61359291906148c0565b925050509392505050565b7f4e487b7100000000000000000000000000000000000000000000000000000000600052600160045260246000fd5b6000604051905090565b600080fd5b600080fd5b600073ffffffffffffffffffffffffffffffffffffffff82169050919050565b600061360b826135e0565b9050919050565b61361b81613600565b811461362657600080fd5b50565b60008135905061363881613612565b92915050565b6000819050919050565b6136518161363e565b811461365c57600080fd5b50565b60008135905061366e81613648565b92915050565b60008060008060008060c08789031215613691576136906135d6565b5b600061369f89828a01613629565b96505060206136b089828a0161365f565b95505060406136c189828a0161365f565b94505060606136d289828a0161365f565b93505060806136e389828a01613629565b92505060a06136f489828a0161365f565b9150509295509295509295565b61370a8161363e565b82525050565b60006040820190506137256000830185613701565b6137326020830184613701565b9392505050565b600080600060608486031215613752576137516135d6565b5b60006137608682870161365f565b93505060206137718682870161365f565b92505060406137828682870161365f565b9150509250925092565b60006020820190506137a16000830184613701565b92915050565b600080fd5b600080fd5b600080fd5b60008083601f8401126137cc576137cb6137a7565b5b8235905067ffffffffffffffff8111156137e9576137e86137ac565b5b602083019150836020820283011115613805576138046137b1565b5b9250929050565b60008060008060008060a08789031215613829576138286135d6565b5b600061383789828a0161365f565b965050602061384889828a0161365f565b955050604087013567ffffffffffffffff811115613869576138686135db565b5b61387589828a016137b6565b9450945050606061388889828a01613629565b925050608061389989828a0161365f565b9150509295509295509295565b600081519050919050565b600082825260208201905092915050565b6000819050602082019050919050565b6138db8161363e565b82525050565b60006138ed83836138d2565b60208301905092915050565b6000602082019050919050565b6000613911826138a6565b61391b81856138b1565b9350613926836138c2565b8060005b8381101561395757815161393e88826138e1565b9750613949836138f9565b92505060018101905061392a565b5085935050505092915050565b6000602082019050818103600083015261397e8184613906565b905092915050565b6000601f19601f8301169050919050565b7f4e487b7100000000000000000000000000000000000000000000000000000000600052604160045260246000fd5b6139cf82613986565b810181811067ffffffffffffffff821117156139ee576139ed613997565b5b80604052505050565b6000613a016135cc565b9050613a0d82826139c6565b919050565b600067ffffffffffffffff821115613a2d57613a2c613997565b5b602082029050602081019050919050565b6000613a51613a4c84613a12565b6139f7565b90508083825260208201905060208402830185811115613a7457613a736137b1565b5b835b81811015613a9d5780613a898882613629565b845260208401935050602081019050613a76565b5050509392505050565b600082601f830112613abc57613abb6137a7565b5b8135613acc848260208601613a3e565b91505092915050565b60008060408385031215613aec57613aeb6135d6565b5b6000613afa8582860161365f565b925050602083013567ffffffffffffffff811115613b1b57613b1a6135db565b5b613b2785828601613aa7565b9150509250929050565b60008115159050919050565b613b4681613b31565b8114613b5157600080fd5b50565b600081359050613b6381613b3d565b92915050565b600060ff82169050919050565b613b7f81613b69565b8114613b8a57600080fd5b50565b600081359050613b9c81613b76565b92915050565b6000819050919050565b613bb581613ba2565b8114613bc057600080fd5b50565b600081359050613bd281613bac565b92915050565b60008060008060008060008060008060006101608c8e031215613bfe57613bfd6135d6565b5b6000613c0c8e828f01613629565b9b50506020613c1d8e828f01613629565b9a50506040613c2e8e828f0161365f565b9950506060613c3f8e828f0161365f565b9850506080613c508e828f0161365f565b97505060a0613c618e828f01613629565b96505060c0613c728e828f0161365f565b95505060e0613c838e828f01613b54565b945050610100613c958e828f01613b8d565b935050610120613ca78e828f01613bc3565b925050610140613cb98e828f01613bc3565b9150509295989b509295989b9093969950565b600080600080600060808688031215613ce857613ce76135d6565b5b6000613cf68882890161365f565b955050602086013567ffffffffffffffff811115613d1757613d166135db565b5b613d23888289016137b6565b94509450506040613d3688828901613629565b9250506060613d478882890161365f565b9150509295509295909350565b613d5d81613600565b82525050565b6000602082019050613d786000830184613d54565b92915050565b600080600080600080600060e0888a031215613d9d57613d9c6135d6565b5b6000613dab8a828b01613629565b9750506020613dbc8a828b01613629565b9650506040613dcd8a828b0161365f565b9550506060613dde8a828b0161365f565b9450506080613def8a828b0161365f565b93505060a0613e008a828b01613629565b92505060c0613e118a828b0161365f565b91505092959891949750929550565b6000806000806000806000806000806101408b8d031215613e4457613e436135d6565b5b6000613e528d828e01613629565b9a50506020613e638d828e0161365f565b9950506040613e748d828e0161365f565b9850506060613e858d828e0161365f565b9750506080613e968d828e01613629565b96505060a0613ea78d828e0161365f565b95505060c0613eb88d828e01613b54565b94505060e0613ec98d828e01613b8d565b935050610100613edb8d828e01613bc3565b925050610120613eed8d828e01613bc3565b9150509295989b9194979a5092959850565b600080600080600080600080610100898b031215613f2057613f1f6135d6565b5b6000613f2e8b828c01613629565b9850506020613f3f8b828c01613629565b9750506040613f508b828c0161365f565b9650506060613f618b828c0161365f565b9550506080613f728b828c0161365f565b94505060a0613f838b828c0161365f565b93505060c0613f948b828c01613629565b92505060e0613fa58b828c0161365f565b9150509295985092959890939650565b6000606082019050613fca6000830186613701565b613fd76020830185613701565b613fe46040830184613701565b949350505050565b600082825260208201905092915050565b7f444253776170526f757465723a20455850495245440000000000000000000000600082015250565b6000614033601583613fec565b915061403e82613ffd565b602082019050919050565b6000602082019050818103600083015261406281614026565b9050919050565b7f4e487b7100000000000000000000000000000000000000000000000000000000600052601160045260246000fd5b60006140a38261363e565b91506140ae8361363e565b9250828210156140c1576140c0614069565b5b828203905092915050565b7f4e487b7100000000000000000000000000000000000000000000000000000000600052603260045260246000fd5b600060208284031215614111576141106135d6565b5b600061411f84828501613629565b91505092915050565b7f444253776170526f757465723a20494e56414c49445f50415448000000000000600082015250565b600061415e601a83613fec565b915061416982614128565b602082019050919050565b6000602082019050818103600083015261418d81614151565b9050919050565b7f444253776170526f757465723a20494e53554646494349454e545f4f5554505560008201527f545f414d4f554e54000000000000000000000000000000000000000000000000602082015250565b60006141f0602883613fec565b91506141fb82614194565b604082019050919050565b6000602082019050818103600083015261421f816141e3565b9050919050565b61422f81613b69565b82525050565b61423e81613ba2565b82525050565b600060e082019050614259600083018a613d54565b6142666020830189613d54565b6142736040830188613701565b6142806060830187613701565b61428d6080830186614226565b61429a60a0830185614235565b6142a760c0830184614235565b98975050505050505050565b7f444253776170526f757465723a204558434553534956455f494e5055545f414d60008201527f4f554e5400000000000000000000000000000000000000000000000000000000602082015250565b600061430f602483613fec565b915061431a826142b3565b604082019050919050565b6000602082019050818103600083015261433e81614302565b9050919050565b600060408201905061435a6000830185613d54565b6143676020830184613701565b9392505050565b60008151905061437d81613b3d565b92915050565b600060208284031215614399576143986135d6565b5b60006143a78482850161436e565b91505092915050565b60006060820190506143c56000830186613d54565b6143d26020830185613d54565b6143df6040830184613701565b949350505050565b6000815190506143f681613648565b92915050565b60008060408385031215614413576144126135d6565b5b6000614421858286016143e7565b9250506020614432858286016143e7565b9150509250929050565b7f444253776170526f757465723a20494e53554646494349454e545f415f414d4f60008201527f554e540000000000000000000000000000000000000000000000000000000000602082015250565b6000614498602383613fec565b91506144a38261443c565b604082019050919050565b600060208201905081810360008301526144c78161448b565b9050919050565b7f444253776170526f757465723a20494e53554646494349454e545f425f414d4f60008201527f554e540000000000000000000000000000000000000000000000000000000000602082015250565b600061452a602383613fec565b9150614535826144ce565b604082019050919050565b600060208201905081810360008301526145598161451d565b9050919050565b600060208284031215614576576145756135d6565b5b6000614584848285016143e7565b91505092915050565b600081519050919050565b600081905092915050565b60005b838110156145c15780820151818401526020810190506145a6565b838111156145d0576000848401525b50505050565b60006145e18261458d565b6145eb8185614598565b93506145fb8185602086016145a3565b80840191505092915050565b600061461382846145d6565b915081905092915050565b7f5472616e7366657248656c7065723a3a736166655472616e736665723a20747260008201527f616e73666572206661696c656400000000000000000000000000000000000000602082015250565b600061467a602d83613fec565b91506146858261461e565b604082019050919050565b600060208201905081810360008301526146a98161466d565b9050919050565b7f5472616e7366657248656c7065723a3a736166655472616e736665724554483a60008201527f20455448207472616e73666572206661696c6564000000000000000000000000602082015250565b600061470c603483613fec565b9150614717826146b0565b604082019050919050565b6000602082019050818103600083015261473b816146ff565b9050919050565b7f556e697377617056324c6962726172793a20494e53554646494349454e545f4960008201527f4e5055545f414d4f554e54000000000000000000000000000000000000000000602082015250565b600061479e602b83613fec565b91506147a982614742565b604082019050919050565b600060208201905081810360008301526147cd81614791565b9050919050565b7f556e697377617056324c6962726172793a20494e53554646494349454e545f4c60008201527f4951554944495459000000000000000000000000000000000000000000000000602082015250565b6000614830602883613fec565b915061483b826147d4565b604082019050919050565b6000602082019050818103600083015261485f81614823565b9050919050565b60006148718261363e565b915061487c8361363e565b9250817fffffffffffffffffffffffffffffffffffffffffffffffffffffffffffffffff04831182151516156148b5576148b4614069565b5b828202905092915050565b60006148cb8261363e565b91506148d68361363e565b9250827fffffffffffffffffffffffffffffffffffffffffffffffffffffffffffffffff0382111561490b5761490a614069565b5b828201905092915050565b7f4e487b7100000000000000000000000000000000000000000000000000000000600052601260045260246000fd5b60006149508261363e565b915061495b8361363e565b92508261496b5761496a614916565b5b828204905092915050565b7f556e697377617056324c6962726172793a20494e56414c49445f504154480000600082015250565b60006149ac601e83613fec565b91506149b782614976565b602082019050919050565b600060208201905081810360008301526149db8161499f565b9050919050565b60006149ed8261363e565b91507fffffffffffffffffffffffffffffffffffffffffffffffffffffffffffffffff821415614a2057614a1f614069565b5b600182019050919050565b60008160601b9050919050565b6000614a4382614a2b565b9050919050565b6000614a5582614a38565b9050919050565b614a6d614a6882613600565b614a4a565b82525050565b6000614a7f8285614a5c565b601482019150614a8f8284614a5c565b6014820191508190509392505050565b600081905092915050565b7fff00000000000000000000000000000000000000000000000000000000000000600082015250565b6000614ae0600183614a9f565b9150614aeb82614aaa565b600182019050919050565b6000819050919050565b614b11614b0c82613ba2565b614af6565b82525050565b7f96e8ac4277198ff8b6f785478aa9a39f403cb768dd02cbee326c3e7da348845f600082015250565b6000614b4d602083614a9f565b9150614b5882614b17565b602082019050919050565b6000614b6e82614ad3565b9150614b7a8285614a5c565b601482019150614b8a8284614b00565b602082019150614b9982614b40565b91508190509392505050565b7f5472616e7366657248656c7065723a3a7472616e7366657246726f6d3a20747260008201527f616e7366657246726f6d206661696c6564000000000000000000000000000000602082015250565b6000614c01603183613fec565b9150614c0c82614ba5565b604082019050919050565b60006020820190508181036000830152614c3081614bf4565b9050919050565b600082825260208201905092915050565b6000614c538261458d565b614c5d8185614c37565b9350614c6d8185602086016145a3565b614c7681613986565b840191505092915050565b6000608082019050614c966000830187613701565b614ca36020830186613701565b614cb06040830185613d54565b8181036060830152614cc28184614c48565b905095945050505050565b6000614cd88261363e565b91506000821415614cec57614ceb614069565b5b600182039050919050565b7f556e697377617056324c6962726172793a20494e53554646494349454e545f4160008201527f4d4f554e54000000000000000000000000000000000000000000000000000000602082015250565b6000614d53602583613fec565b9150614d5e82614cf7565b604082019050919050565b60006020820190508181036000830152614d8281614d46565b9050919050565b7f556e697377617056324c6962726172793a204944454e544943414c5f4144445260008201527f4553534553000000000000000000000000000000000000000000000000000000602082015250565b6000614de5602583613fec565b9150614df082614d89565b604082019050919050565b60006020820190508181036000830152614e1481614dd8565b9050919050565b7f556e697377617056324c6962726172793a205a45524f5f414444524553530000600082015250565b6000614e51601e83613fec565b9150614e5c82614e1b565b602082019050919050565b60006020820190508181036000830152614e8081614e44565b9050919050565b6000604082019050614e9c6000830185613d54565b614ea96020830184613d54565b9392505050565b600081519050614ebf81613612565b92915050565b600060208284031215614edb57614eda6135d6565b5b6000614ee984828501614eb0565b91505092915050565b60006dffffffffffffffffffffffffffff82169050919050565b614f1581614ef2565b8114614f2057600080fd5b50565b600081519050614f3281614f0c565b92915050565b600063ffffffff82169050919050565b614f5181614f38565b8114614f5c57600080fd5b50565b600081519050614f6e81614f48565b92915050565b600080600060608486031215614f8d57614f8c6135d6565b5b6000614f9b86828701614f23565b9350506020614fac86828701614f23565b9250506040614fbd86828701614f5f565b9150509250925092565b7f556e697377617056324c6962726172793a20494e53554646494349454e545f4f60008201527f55545055545f414d4f554e540000000000000000000000000000000000000000602082015250565b6000615023602c83613fec565b915061502e82614fc7565b604082019050919050565b6000602082019050818103600083015261505281615016565b905091905056fea26469706673582212208ece903a0adc4a7ecf39aed223ac6fe7a20606a204cc96688dfb7a78c7e14aaf64736f6c634300080a0033",
  "immutableReferences": {
    "2869": [
      {
        "length": 32,
        "start": 2067
      },
      {
        "length": 32,
        "start": 2328
      },
      {
        "length": 32,
        "start": 2800
      },
      {
        "length": 32,
        "start": 2856
      },
      {
        "length": 32,
        "start": 3180
      },
      {
        "length": 32,
        "start": 3441
      },
      {
        "length": 32,
        "start": 3950
      },
      {
        "length": 32,
        "start": 4199
      },
      {
        "length": 32,
        "start": 4921
      },
      {
        "length": 32,
        "start": 5353
      },
      {
        "length": 32,
        "start": 5791
      },
      {
        "length": 32,
        "start": 6040
      },
      {
        "length": 32,
        "start": 6414
      },
      {
        "length": 32,
        "start": 6950
      },
      {
        "length": 32,
        "start": 6991
      },
      {
        "length": 32,
        "start": 7047
      },
      {
        "length": 32,
        "start": 7428
      },
      {
        "length": 32,
        "start": 7768
      },
      {
        "length": 32,
        "start": 8579
      },
      {
        "length": 32,
        "start": 8999
      },
      {
        "length": 32,
        "start": 11304
      },
      {
        "length": 32,
        "start": 11388
      },
      {
        "length": 32,
        "start": 12568
      },
      {
        "length": 32,
        "start": 12752
      },
      {
        "length": 32,
        "start": 12918
      }
    ],
    "2872": [
      {
        "length": 32,
        "start": 287
      },
      {
        "length": 32,
        "start": 1553
      },
      {
        "length": 32,
        "start": 1615
      },
      {
        "length": 32,
        "start": 1868
      },
      {
        "length": 32,
        "start": 2557
      },
      {
        "length": 32,
        "start": 3751
      },
      {
        "length": 32,
        "start": 4428
      },
      {
        "length": 32,
        "start": 4736
      },
      {
        "length": 32,
        "start": 5134
      },
      {
        "length": 32,
        "start": 5290
      },
      {
        "length": 32,
        "start": 6280
      },
      {
        "length": 32,
        "start": 7081
      },
      {
        "length": 32,
        "start": 7713
      },
      {
        "length": 32,
        "start": 7802
      },
      {
        "length": 32,
        "start": 7854
      },
      {
        "length": 32,
        "start": 7983
      },
      {
        "length": 32,
        "start": 8394
      },
      {
        "length": 32,
        "start": 8780
      },
      {
        "length": 32,
        "start": 8936
      }
    ]
  },
  "source": "// SPDX-License-Identifier: MIT\n\npragma solidity 0.8.10;\n\nimport '../uniswap-v2-core/interfaces/IDBSwapFactory.sol';\nimport '../uniswap-solidity-lib/libraries/TransferHelper.sol';\n\nimport './libraries/DBSwapLibrary.sol';\nimport './interfaces/IDBSwapRouter01.sol';\nimport '../uniswap-v2-core/interfaces/IERC20.sol';\nimport './interfaces/IWETH.sol';\n\ncontract DBSwapRouter01 is IDBSwapRouter01 {\n    address public immutable override factory;\n    address public immutable override WETH;\n\n    modifier ensure(uint deadline) {\n        require(deadline >= block.timestamp, 'DBSwapRouter: EXPIRED');\n        _;\n    }\n\n    constructor(address _factory, address _WETH) {\n        factory = _factory;\n        WETH = _WETH;\n    }\n\n    receive() external payable {\n        assert(msg.sender == WETH); // only accept ETH via fallback from the WETH contract\n    }\n\n    // **** ADD LIQUIDITY ****\n    function _addLiquidity(\n        address tokenA,\n        address tokenB,\n        uint amountADesired,\n        uint amountBDesired,\n        uint amountAMin,\n        uint amountBMin\n    ) private returns (uint amountA, uint amountB) {\n        // create the pair if it doesn't exist yet\n        if (IDBSwapFactory(factory).getPair(tokenA, tokenB) == address(0)) {\n            IDBSwapFactory(factory).createPair(tokenA, tokenB);\n        }\n        (uint reserveA, uint reserveB) = DBSwapLibrary.getReserves(factory, tokenA, tokenB);\n        if (reserveA == 0 && reserveB == 0) {\n            (amountA, amountB) = (amountADesired, amountBDesired);\n        } else {\n            uint amountBOptimal = DBSwapLibrary.quote(amountADesired, reserveA, reserveB);\n            if (amountBOptimal <= amountBDesired) {\n                require(amountBOptimal >= amountBMin, 'DBSwapRouter: INSUFFICIENT_B_AMOUNT');\n                (amountA, amountB) = (amountADesired, amountBOptimal);\n            } else {\n                uint amountAOptimal = DBSwapLibrary.quote(amountBDesired, reserveB, reserveA);\n                assert(amountAOptimal <= amountADesired);\n                require(amountAOptimal >= amountAMin, 'DBSwapRouter: INSUFFICIENT_A_AMOUNT');\n                (amountA, amountB) = (amountAOptimal, amountBDesired);\n            }\n        }\n    }\n    function addLiquidity(\n        address tokenA,\n        address tokenB,\n        uint amountADesired,\n        uint amountBDesired,\n        uint amountAMin,\n        uint amountBMin,\n        address to,\n        uint deadline\n    ) external override ensure(deadline) returns (uint amountA, uint amountB, uint liquidity) {\n        (amountA, amountB) = _addLiquidity(tokenA, tokenB, amountADesired, amountBDesired, amountAMin, amountBMin);\n        address pair = DBSwapLibrary.pairFor(factory, tokenA, tokenB);\n        TransferHelper.safeTransferFrom(tokenA, msg.sender, pair, amountA);\n        TransferHelper.safeTransferFrom(tokenB, msg.sender, pair, amountB);\n        liquidity = IDBSwapPair(pair).mint(to);\n    }\n    function addLiquidityETH(\n        address token,\n        uint amountTokenDesired,\n        uint amountTokenMin,\n        uint amountETHMin,\n        address to,\n        uint deadline\n    ) external override payable ensure(deadline) returns (uint amountToken, uint amountETH, uint liquidity) {\n        (amountToken, amountETH) = _addLiquidity(\n            token,\n            WETH,\n            amountTokenDesired,\n            msg.value,\n            amountTokenMin,\n            amountETHMin\n        );\n        address pair = DBSwapLibrary.pairFor(factory, token, WETH);\n        TransferHelper.safeTransferFrom(token, msg.sender, pair, amountToken);\n        IWETH(WETH).deposit{value: amountETH}();\n        assert(IWETH(WETH).transfer(pair, amountETH));\n        liquidity = IDBSwapPair(pair).mint(to);\n        if (msg.value > amountETH) TransferHelper.safeTransferETH(msg.sender, msg.value - amountETH); // refund dust eth, if any\n    }\n\n    // **** REMOVE LIQUIDITY ****\n    function removeLiquidity(\n        address tokenA,\n        address tokenB,\n        uint liquidity,\n        uint amountAMin,\n        uint amountBMin,\n        address to,\n        uint deadline\n    ) public override ensure(deadline) returns (uint amountA, uint amountB) {\n        address pair = DBSwapLibrary.pairFor(factory, tokenA, tokenB);\n        IDBSwapPair(pair).transferFrom(msg.sender, pair, liquidity); // send liquidity to pair\n        (uint amount0, uint amount1) = IDBSwapPair(pair).burn(to);\n        (address token0,) = DBSwapLibrary.sortTokens(tokenA, tokenB);\n        (amountA, amountB) = tokenA == token0 ? (amount0, amount1) : (amount1, amount0);\n        require(amountA >= amountAMin, 'DBSwapRouter: INSUFFICIENT_A_AMOUNT');\n        require(amountB >= amountBMin, 'DBSwapRouter: INSUFFICIENT_B_AMOUNT');\n    }\n    function removeLiquidityETH(\n        address token,\n        uint liquidity,\n        uint amountTokenMin,\n        uint amountETHMin,\n        address to,\n        uint deadline\n    ) public override ensure(deadline) returns (uint amountToken, uint amountETH) {\n        (amountToken, amountETH) = removeLiquidity(\n            token,\n            WETH,\n            liquidity,\n            amountTokenMin,\n            amountETHMin,\n            address(this),\n            deadline\n        );\n        TransferHelper.safeTransfer(token, to, amountToken);\n        IWETH(WETH).withdraw(amountETH);\n        TransferHelper.safeTransferETH(to, amountETH);\n    }\n    function removeLiquidityWithPermit(\n        address tokenA,\n        address tokenB,\n        uint liquidity,\n        uint amountAMin,\n        uint amountBMin,\n        address to,\n        uint deadline,\n        bool approveMax, uint8 v, bytes32 r, bytes32 s\n    ) external override returns (uint amountA, uint amountB) {\n        address pair = DBSwapLibrary.pairFor(factory, tokenA, tokenB);\n        uint value = approveMax ? type(uint).max : liquidity;\n        IDBSwapPair(pair).permit(msg.sender, address(this), value, deadline, v, r, s);\n        (amountA, amountB) = removeLiquidity(tokenA, tokenB, liquidity, amountAMin, amountBMin, to, deadline);\n    }\n    function removeLiquidityETHWithPermit(\n        address token,\n        uint liquidity,\n        uint amountTokenMin,\n        uint amountETHMin,\n        address to,\n        uint deadline,\n        bool approveMax, uint8 v, bytes32 r, bytes32 s\n    ) external override returns (uint amountToken, uint amountETH) {\n        address pair = DBSwapLibrary.pairFor(factory, token, WETH);\n        uint value = approveMax ? type(uint).max : liquidity;\n        IDBSwapPair(pair).permit(msg.sender, address(this), value, deadline, v, r, s);\n        (amountToken, amountETH) = removeLiquidityETH(token, liquidity, amountTokenMin, amountETHMin, to, deadline);\n    }\n\n    // **** SWAP ****\n    // requires the initial amount to have already been sent to the first pair\n    function _swap(uint[] memory amounts, address[] memory path, address _to) private {\n        for (uint i; i < path.length - 1; i++) {\n            (address input, address output) = (path[i], path[i + 1]);\n            (address token0,) = DBSwapLibrary.sortTokens(input, output);\n            uint amountOut = amounts[i + 1];\n            (uint amount0Out, uint amount1Out) = input == token0 ? (uint(0), amountOut) : (amountOut, uint(0));\n            address to = i < path.length - 2 ? DBSwapLibrary.pairFor(factory, output, path[i + 2]) : _to;\n            IDBSwapPair(DBSwapLibrary.pairFor(factory, input, output)).swap(amount0Out, amount1Out, to, new bytes(0));\n        }\n    }\n    function swapExactTokensForTokens(\n        uint amountIn,\n        uint amountOutMin,\n        address[] calldata path,\n        address to,\n        uint deadline\n    ) external override ensure(deadline) returns (uint[] memory amounts) {\n        amounts = DBSwapLibrary.getAmountsOut(factory, amountIn, path);\n        require(amounts[amounts.length - 1] >= amountOutMin, 'DBSwapRouter: INSUFFICIENT_OUTPUT_AMOUNT');\n        TransferHelper.safeTransferFrom(path[0], msg.sender, DBSwapLibrary.pairFor(factory, path[0], path[1]), amounts[0]);\n        _swap(amounts, path, to);\n    }\n    function swapTokensForExactTokens(\n        uint amountOut,\n        uint amountInMax,\n        address[] calldata path,\n        address to,\n        uint deadline\n    ) external override ensure(deadline) returns (uint[] memory amounts) {\n        amounts = DBSwapLibrary.getAmountsIn(factory, amountOut, path);\n        require(amounts[0] <= amountInMax, 'DBSwapRouter: EXCESSIVE_INPUT_AMOUNT');\n        TransferHelper.safeTransferFrom(path[0], msg.sender, DBSwapLibrary.pairFor(factory, path[0], path[1]), amounts[0]);\n        _swap(amounts, path, to);\n    }\n    function swapExactETHForTokens(uint amountOutMin, address[] calldata path, address to, uint deadline)\n        external\n        override\n        payable\n        ensure(deadline)\n        returns (uint[] memory amounts)\n    {\n        require(path[0] == WETH, 'DBSwapRouter: INVALID_PATH');\n        amounts = DBSwapLibrary.getAmountsOut(factory, msg.value, path);\n        require(amounts[amounts.length - 1] >= amountOutMin, 'DBSwapRouter: INSUFFICIENT_OUTPUT_AMOUNT');\n        IWETH(WETH).deposit{value: amounts[0]}();\n        assert(IWETH(WETH).transfer(DBSwapLibrary.pairFor(factory, path[0], path[1]), amounts[0]));\n        _swap(amounts, path, to);\n    }\n    function swapTokensForExactETH(uint amountOut, uint amountInMax, address[] calldata path, address to, uint deadline)\n        external\n        override\n        ensure(deadline)\n        returns (uint[] memory amounts)\n    {\n        require(path[path.length - 1] == WETH, 'DBSwapRouter: INVALID_PATH');\n        amounts = DBSwapLibrary.getAmountsIn(factory, amountOut, path);\n        require(amounts[0] <= amountInMax, 'DBSwapRouter: EXCESSIVE_INPUT_AMOUNT');\n        TransferHelper.safeTransferFrom(path[0], msg.sender, DBSwapLibrary.pairFor(factory, path[0], path[1]), amounts[0]);\n        _swap(amounts, path, address(this));\n        IWETH(WETH).withdraw(amounts[amounts.length - 1]);\n        TransferHelper.safeTransferETH(to, amounts[amounts.length - 1]);\n    }\n    function swapExactTokensForETH(uint amountIn, uint amountOutMin, address[] calldata path, address to, uint deadline)\n        external\n        override\n        ensure(deadline)\n        returns (uint[] memory amounts)\n    {\n        require(path[path.length - 1] == WETH, 'DBSwapRouter: INVALID_PATH');\n        amounts = DBSwapLibrary.getAmountsOut(factory, amountIn, path);\n        require(amounts[amounts.length - 1] >= amountOutMin, 'DBSwapRouter: INSUFFICIENT_OUTPUT_AMOUNT');\n        TransferHelper.safeTransferFrom(path[0], msg.sender, DBSwapLibrary.pairFor(factory, path[0], path[1]), amounts[0]);\n        _swap(amounts, path, address(this));\n        IWETH(WETH).withdraw(amounts[amounts.length - 1]);\n        TransferHelper.safeTransferETH(to, amounts[amounts.length - 1]);\n    }\n    function swapETHForExactTokens(uint amountOut, address[] calldata path, address to, uint deadline)\n        external\n        override\n        payable\n        ensure(deadline)\n        returns (uint[] memory amounts)\n    {\n        require(path[0] == WETH, 'DBSwapRouter: INVALID_PATH');\n        amounts = DBSwapLibrary.getAmountsIn(factory, amountOut, path);\n        require(amounts[0] <= msg.value, 'DBSwapRouter: EXCESSIVE_INPUT_AMOUNT');\n        IWETH(WETH).deposit{value: amounts[0]}();\n        assert(IWETH(WETH).transfer(DBSwapLibrary.pairFor(factory, path[0], path[1]), amounts[0]));\n        _swap(amounts, path, to);\n        if (msg.value > amounts[0]) TransferHelper.safeTransferETH(msg.sender, msg.value - amounts[0]); // refund dust eth, if any\n    }\n\n    function quote(uint amountA, uint reserveA, uint reserveB) public pure override returns (uint amountB) {\n        return DBSwapLibrary.quote(amountA, reserveA, reserveB);\n    }\n\n    function getAmountOut(uint amountIn, uint reserveIn, uint reserveOut) public pure override returns (uint amountOut) {\n        return DBSwapLibrary.getAmountOut(amountIn, reserveIn, reserveOut);\n    }\n\n    function getAmountIn(uint amountOut, uint reserveIn, uint reserveOut) public pure override returns (uint amountIn) {\n        return DBSwapLibrary.getAmountOut(amountOut, reserveIn, reserveOut);\n    }\n\n    function getAmountsOut(uint amountIn, address[] memory path) public view override returns (uint[] memory amounts) {\n        return DBSwapLibrary.getAmountsOut(factory, amountIn, path);\n    }\n\n    function getAmountsIn(uint amountOut, address[] memory path) public view override returns (uint[] memory amounts) {\n        return DBSwapLibrary.getAmountsIn(factory, amountOut, path);\n    }\n}\n",
  "sourcePath": "/Users/deyibanh/Documents/Professionnel/Alyra/Applications/alyra-defi4-uniswap-fork/contracts/uniswap-v2-periphery/DBSwapRouter01.sol",
  "compiler": {
    "name": "solc",
    "version": "0.8.10+commit.fc410830.Emscripten.clang"
  },
  "schemaVersion": "3.4.3",
  "updatedAt": "2021-12-05T13:48:48.759Z",
  "devdoc": {
    "kind": "dev",
    "methods": {},
    "version": 1
  },
  "userdoc": {
    "kind": "user",
    "methods": {},
    "version": 1
  }
}