{
  "contractName": "DBSwapMigrator",
  "abi": [
    {
      "inputs": [
        {
          "internalType": "address",
          "name": "_factoryV1",
          "type": "address"
        },
        {
          "internalType": "address",
          "name": "_router",
          "type": "address"
        }
      ],
      "stateMutability": "nonpayable",
      "type": "constructor"
    },
    {
      "stateMutability": "payable",
      "type": "receive"
    },
    {
      "inputs": [
        {
          "internalType": "address",
          "name": "token",
          "type": "address"
        },
        {
          "internalType": "uint256",
          "name": "amountTokenMin",
          "type": "uint256"
        },
        {
          "internalType": "uint256",
          "name": "amountETHMin",
          "type": "uint256"
        },
        {
          "internalType": "address",
          "name": "to",
          "type": "address"
        },
        {
          "internalType": "uint256",
          "name": "deadline",
          "type": "uint256"
        }
      ],
      "name": "migrate",
      "outputs": [],
      "stateMutability": "nonpayable",
      "type": "function"
    }
  ],
  "bytecode": "0x60c060405234801561001057600080fd5b50604051610bc5380380610bc583398101604081905261002f91610062565b6001600160a01b039182166080521660a052610095565b80516001600160a01b038116811461005d57600080fd5b919050565b6000806040838503121561007557600080fd5b61007e83610046565b915061008c60208401610046565b90509250929050565b60805160a051610afe6100c7600039600081816103770152818161040a015261048c0152600060980152610afe6000f3fe6080604052600436106100225760003560e01c8063b7df1d251461002e57600080fd5b3661002957005b600080fd5b34801561003a57600080fd5b5061004e61004936600461094c565b610050565b005b6040517f06f2bf6200000000000000000000000000000000000000000000000000000000815273ffffffffffffffffffffffffffffffffffffffff86811660048301526000917f0000000000000000000000000000000000000000000000000000000000000000909116906306f2bf6290602401602060405180830381865afa1580156100e1573d6000803e3d6000fd5b505050506040513d601f19601f82011682018060405250810190610105919061099e565b6040517f70a0823100000000000000000000000000000000000000000000000000000000815233600482015290915060009073ffffffffffffffffffffffffffffffffffffffff8316906370a0823190602401602060405180830381865afa158015610175573d6000803e3d6000fd5b505050506040513d601f19601f8201168201806040525081019061019991906109c2565b6040517f23b872dd0000000000000000000000000000000000000000000000000000000081523360048201523060248201526044810182905290915073ffffffffffffffffffffffffffffffffffffffff8316906323b872dd906064016020604051808303816000875af1158015610215573d6000803e3d6000fd5b505050506040513d601f19601f8201168201806040525081019061023991906109db565b6102a4576040517f08c379a000000000000000000000000000000000000000000000000000000000815260206004820152601460248201527f5452414e534645525f46524f4d5f4641494c454400000000000000000000000060448201526064015b60405180910390fd5b6040517ff88bf15a0000000000000000000000000000000000000000000000000000000081526004810182905260016024820181905260448201527fffffffffffffffffffffffffffffffffffffffffffffffffffffffffffffffff6064820152600090819073ffffffffffffffffffffffffffffffffffffffff85169063f88bf15a9060840160408051808303816000875af1158015610349573d6000803e3d6000fd5b505050506040513d601f19601f8201168201806040525081019061036d91906109fd565b9150915061039c897f0000000000000000000000000000000000000000000000000000000000000000836104f3565b6040517ff305d71900000000000000000000000000000000000000000000000000000000815273ffffffffffffffffffffffffffffffffffffffff8a8116600483015260248201839052604482018a905260648201899052878116608483015260a4820187905260009182917f0000000000000000000000000000000000000000000000000000000000000000169063f305d71990869060c40160606040518083038185885af1158015610454573d6000803e3d6000fd5b50505050506040513d601f19601f820116820180604052508101906104799190610a21565b5091509150818311156104cb576104b28b7f000000000000000000000000000000000000000000000000000000000000000060006104f3565b6104c68b336104c18587610a4f565b610689565b6104e6565b808411156104e6576104e6336104e18387610a4f565b610818565b5050505050505050505050565b6040805173ffffffffffffffffffffffffffffffffffffffff8481166024830152604480830185905283518084039091018152606490920183526020820180517bffffffffffffffffffffffffffffffffffffffffffffffffffffffff167f095ea7b300000000000000000000000000000000000000000000000000000000179052915160009283929087169161058a9190610a8d565b6000604051808303816000865af19150503d80600081146105c7576040519150601f19603f3d011682016040523d82523d6000602084013e6105cc565b606091505b50915091508180156105f65750805115806105f65750808060200190518101906105f691906109db565b610682576040517f08c379a000000000000000000000000000000000000000000000000000000000815260206004820152602b60248201527f5472616e7366657248656c7065723a3a73616665417070726f76653a2061707060448201527f726f7665206661696c6564000000000000000000000000000000000000000000606482015260840161029b565b5050505050565b6040805173ffffffffffffffffffffffffffffffffffffffff8481166024830152604480830185905283518084039091018152606490920183526020820180517bffffffffffffffffffffffffffffffffffffffffffffffffffffffff167fa9059cbb0000000000000000000000000000000000000000000000000000000017905291516000928392908716916107209190610a8d565b6000604051808303816000865af19150503d806000811461075d576040519150601f19603f3d011682016040523d82523d6000602084013e610762565b606091505b509150915081801561078c57508051158061078c57508080602001905181019061078c91906109db565b610682576040517f08c379a000000000000000000000000000000000000000000000000000000000815260206004820152602d60248201527f5472616e7366657248656c7065723a3a736166655472616e736665723a20747260448201527f616e73666572206661696c656400000000000000000000000000000000000000606482015260840161029b565b6040805160008082526020820190925273ffffffffffffffffffffffffffffffffffffffff841690839060405161084f9190610a8d565b60006040518083038185875af1925050503d806000811461088c576040519150601f19603f3d011682016040523d82523d6000602084013e610891565b606091505b5050905080610922576040517f08c379a000000000000000000000000000000000000000000000000000000000815260206004820152603460248201527f5472616e7366657248656c7065723a3a736166655472616e736665724554483a60448201527f20455448207472616e73666572206661696c6564000000000000000000000000606482015260840161029b565b505050565b73ffffffffffffffffffffffffffffffffffffffff8116811461094957600080fd5b50565b600080600080600060a0868803121561096457600080fd5b853561096f81610927565b94506020860135935060408601359250606086013561098d81610927565b949793965091946080013592915050565b6000602082840312156109b057600080fd5b81516109bb81610927565b9392505050565b6000602082840312156109d457600080fd5b5051919050565b6000602082840312156109ed57600080fd5b815180151581146109bb57600080fd5b60008060408385031215610a1057600080fd5b505080516020909101519092909150565b600080600060608486031215610a3657600080fd5b8351925060208401519150604084015190509250925092565b600082821015610a88577f4e487b7100000000000000000000000000000000000000000000000000000000600052601160045260246000fd5b500390565b6000825160005b81811015610aae5760208186018101518583015201610a94565b81811115610abd576000828501525b50919091019291505056fea2646970667358221220ef4be184efb331013844ac832567e32c6ed547e9b8f2ffe25facb7e234f2a6fb64736f6c634300080a0033",
  "immutableReferences": {
    "3697": [
      {
        "length": 32,
        "start": 152
      }
    ],
    "3700": [
      {
        "length": 32,
        "start": 887
      },
      {
        "length": 32,
        "start": 1034
      },
      {
        "length": 32,
        "start": 1164
      }
    ]
  },
  "source": "// SPDX-License-Identifier: MIT\n\npragma solidity 0.8.10;\n\nimport '../uniswap-solidity-lib/libraries/TransferHelper.sol';\n\nimport './interfaces/IDBSwapMigrator.sol';\nimport './interfaces/V1/IDBSwapV1Factory.sol';\nimport './interfaces/V1/IDBSwapV1Exchange.sol';\nimport './interfaces/IDBSwapRouter01.sol';\nimport '../uniswap-v2-core/interfaces/IERC20.sol';\n\ncontract DBSwapMigrator is IDBSwapMigrator {\n    IDBSwapV1Factory immutable factoryV1;\n    IDBSwapRouter01 immutable router;\n\n    constructor(address _factoryV1, address _router) {\n        factoryV1 = IDBSwapV1Factory(_factoryV1);\n        router = IDBSwapRouter01(_router);\n    }\n\n    // needs to accept ETH from any v1 exchange and the router. ideally this could be enforced, as in the router,\n    // but it's not possible because it requires a call to the v1 factory, which takes too much gas\n    receive() external payable {}\n\n    function migrate(address token, uint amountTokenMin, uint amountETHMin, address to, uint deadline)\n        external\n        override\n    {\n        IDBSwapV1Exchange exchangeV1 = IDBSwapV1Exchange(factoryV1.getExchange(token));\n        uint liquidityV1 = exchangeV1.balanceOf(msg.sender);\n        require(exchangeV1.transferFrom(msg.sender, address(this), liquidityV1), 'TRANSFER_FROM_FAILED');\n        (uint amountETHV1, uint amountTokenV1) = exchangeV1.removeLiquidity(liquidityV1, 1, 1, type(uint).max);\n        TransferHelper.safeApprove(token, address(router), amountTokenV1);\n        (uint amountTokenV2, uint amountETHV2,) = router.addLiquidityETH{value: amountETHV1}(\n            token,\n            amountTokenV1,\n            amountTokenMin,\n            amountETHMin,\n            to,\n            deadline\n        );\n        if (amountTokenV1 > amountTokenV2) {\n            TransferHelper.safeApprove(token, address(router), 0); // be a good blockchain citizen, reset allowance to 0\n            TransferHelper.safeTransfer(token, msg.sender, amountTokenV1 - amountTokenV2);\n        } else if (amountETHV1 > amountETHV2) {\n            // addLiquidityETH guarantees that all of amountETHV1 or amountTokenV1 will be used, hence this else is safe\n            TransferHelper.safeTransferETH(msg.sender, amountETHV1 - amountETHV2);\n        }\n    }\n}\n",
  "sourcePath": "/Users/deyibanh/Documents/Professionnel/Alyra/Applications/alyra-defi4-uniswap-fork/contracts/uniswap-v2-periphery/DBSwapMigrator.sol",
  "compiler": {
    "name": "solc",
    "version": "0.8.10+commit.fc410830.Emscripten.clang"
  },
  "schemaVersion": "3.4.3",
  "updatedAt": "2021-12-05T14:22:00.605Z",
  "devdoc": {
    "kind": "dev",
    "methods": {},
    "version": 1
  },
  "userdoc": {
    "kind": "user",
    "methods": {},
    "version": 1
  }
}